{
  "contractName": "FlowerMarketPlace",
  "abi": [
    {
      "constant": false,
      "inputs": [
        {
          "name": "managerAddress",
          "type": "address"
        }
      ],
      "name": "addManager",
      "outputs": [
        {
          "name": "status",
          "type": "int256"
        }
      ],
      "payable": false,
      "stateMutability": "nonpayable",
      "type": "function"
    },
    {
      "constant": false,
      "inputs": [
        {
          "name": "managerAddress",
          "type": "address"
        }
      ],
      "name": "revokeManagerCert",
      "outputs": [
        {
          "name": "status",
          "type": "int256"
        }
      ],
      "payable": false,
      "stateMutability": "nonpayable",
      "type": "function"
    },
    {
      "constant": true,
      "inputs": [],
      "name": "getManagers",
      "outputs": [
        {
          "name": "status",
          "type": "int256"
        },
        {
          "name": "managerAddresses",
          "type": "address[]"
        }
      ],
      "payable": false,
      "stateMutability": "view",
      "type": "function"
    },
    {
      "constant": false,
      "inputs": [
        {
          "name": "addr",
          "type": "address"
        }
      ],
      "name": "transferOwnership",
      "outputs": [
        {
          "name": "status",
          "type": "int256"
        }
      ],
      "payable": false,
      "stateMutability": "nonpayable",
      "type": "function"
    },
    {
      "inputs": [],
      "payable": false,
      "stateMutability": "nonpayable",
      "type": "constructor"
    },
    {
      "anonymous": false,
      "inputs": [
        {
          "indexed": false,
          "name": "requestID",
          "type": "uint256"
        },
        {
          "indexed": false,
          "name": "deadline",
          "type": "uint256"
        }
      ],
      "name": "RequestAdded",
      "type": "event"
    },
    {
      "anonymous": false,
      "inputs": [
        {
          "indexed": false,
          "name": "requestID",
          "type": "uint256"
        },
        {
          "indexed": false,
          "name": "quantity",
          "type": "uint256"
        },
        {
          "indexed": false,
          "name": "flowerType",
          "type": "uint8"
        }
      ],
      "name": "RequestExtraAdded",
      "type": "event"
    },
    {
      "anonymous": false,
      "inputs": [
        {
          "indexed": false,
          "name": "offerID",
          "type": "uint256"
        },
        {
          "indexed": false,
          "name": "requestID",
          "type": "uint256"
        },
        {
          "indexed": false,
          "name": "offerMaker",
          "type": "address"
        }
      ],
      "name": "OfferAdded",
      "type": "event"
    },
    {
      "anonymous": false,
      "inputs": [
        {
          "indexed": false,
          "name": "offerID",
          "type": "uint256"
        },
        {
          "indexed": false,
          "name": "price",
          "type": "uint256"
        }
      ],
      "name": "OfferExtraAdded",
      "type": "event"
    },
    {
      "anonymous": false,
      "inputs": [
        {
          "indexed": false,
          "name": "status",
          "type": "int256"
        }
      ],
      "name": "FunctionStatus",
      "type": "event"
    },
    {
      "constant": true,
      "inputs": [],
      "name": "getMarketInformation",
      "outputs": [
        {
          "name": "status",
          "type": "int256"
        },
        {
          "name": "ownerAddress",
          "type": "address"
        }
      ],
      "payable": false,
      "stateMutability": "view",
      "type": "function"
    },
    {
      "constant": true,
      "inputs": [],
      "name": "getOpenRequestIdentifiers",
      "outputs": [
        {
          "name": "status",
          "type": "int256"
        },
        {
          "name": "",
          "type": "uint256[]"
        }
      ],
      "payable": false,
      "stateMutability": "view",
      "type": "function"
    },
    {
      "constant": true,
      "inputs": [],
      "name": "getClosedRequestIdentifiers",
      "outputs": [
        {
          "name": "status",
          "type": "int256"
        },
        {
          "name": "",
          "type": "uint256[]"
        }
      ],
      "payable": false,
      "stateMutability": "view",
      "type": "function"
    },
    {
      "constant": true,
      "inputs": [
        {
          "name": "requestIdentifier",
          "type": "uint256"
        }
      ],
      "name": "getRequest",
      "outputs": [
        {
          "name": "status",
          "type": "int256"
        },
        {
          "name": "deadline",
          "type": "uint256"
        },
        {
          "name": "stage",
          "type": "uint256"
        }
      ],
      "payable": false,
      "stateMutability": "view",
      "type": "function"
    },
    {
      "constant": true,
      "inputs": [
        {
          "name": "requestIdentifier",
          "type": "uint256"
        }
      ],
      "name": "getRequestExtra",
      "outputs": [
        {
          "name": "status",
          "type": "int256"
        },
        {
          "name": "quantity",
          "type": "uint256"
        },
        {
          "name": "flowerType",
          "type": "uint8"
        }
      ],
      "payable": false,
      "stateMutability": "view",
      "type": "function"
    },
    {
      "constant": true,
      "inputs": [
        {
          "name": "requestIdentifier",
          "type": "uint256"
        }
      ],
      "name": "getRequestOfferIDs",
      "outputs": [
        {
          "name": "status",
          "type": "int256"
        },
        {
          "name": "offerIDs",
          "type": "uint256[]"
        }
      ],
      "payable": false,
      "stateMutability": "view",
      "type": "function"
    },
    {
      "constant": true,
      "inputs": [
        {
          "name": "offerIdentifier",
          "type": "uint256"
        }
      ],
      "name": "isOfferDefined",
      "outputs": [
        {
          "name": "status",
          "type": "int256"
        },
        {
          "name": "",
          "type": "bool"
        }
      ],
      "payable": false,
      "stateMutability": "view",
      "type": "function"
    },
    {
      "constant": true,
      "inputs": [
        {
          "name": "offerIdentifier",
          "type": "uint256"
        }
      ],
      "name": "getOffer",
      "outputs": [
        {
          "name": "status",
          "type": "int256"
        },
        {
          "name": "requestID",
          "type": "uint256"
        },
        {
          "name": "offerMaker",
          "type": "address"
        },
        {
          "name": "stage",
          "type": "uint256"
        }
      ],
      "payable": false,
      "stateMutability": "view",
      "type": "function"
    },
    {
      "constant": true,
      "inputs": [
        {
          "name": "offerIdentifier",
          "type": "uint256"
        }
      ],
      "name": "getOfferExtra",
      "outputs": [
        {
          "name": "status",
          "type": "int256"
        },
        {
          "name": "price",
          "type": "uint256"
        }
      ],
      "payable": false,
      "stateMutability": "view",
      "type": "function"
    },
    {
      "constant": false,
      "inputs": [
        {
          "name": "requestID",
          "type": "uint256"
        }
      ],
      "name": "submitOffer",
      "outputs": [
        {
          "name": "status",
          "type": "int256"
        },
        {
          "name": "offerID",
          "type": "uint256"
        }
      ],
      "payable": false,
      "stateMutability": "nonpayable",
      "type": "function"
    },
    {
      "constant": false,
      "inputs": [
        {
          "name": "offerID",
          "type": "uint256"
        },
        {
          "name": "price",
          "type": "uint256"
        }
      ],
      "name": "submitOfferExtra",
      "outputs": [
        {
          "name": "status",
          "type": "int256"
        },
        {
          "name": "offID",
          "type": "uint256"
        }
      ],
      "payable": false,
      "stateMutability": "nonpayable",
      "type": "function"
    },
    {
      "constant": true,
      "inputs": [
        {
          "name": "requestIdentifier",
          "type": "uint256"
        }
      ],
      "name": "isRequestDefined",
      "outputs": [
        {
          "name": "status",
          "type": "int256"
        },
        {
          "name": "",
          "type": "bool"
        }
      ],
      "payable": false,
      "stateMutability": "view",
      "type": "function"
    },
    {
      "constant": true,
      "inputs": [
        {
          "name": "requestIdentifier",
          "type": "uint256"
        }
      ],
      "name": "isRequestDecided",
      "outputs": [
        {
          "name": "status",
          "type": "int256"
        },
        {
          "name": "",
          "type": "bool"
        }
      ],
      "payable": false,
      "stateMutability": "view",
      "type": "function"
    },
    {
      "constant": true,
      "inputs": [
        {
          "name": "requestIdentifier",
          "type": "uint256"
        }
      ],
      "name": "getRequestDecision",
      "outputs": [
        {
          "name": "status",
          "type": "int256"
        },
        {
          "name": "acceptedOfferIDs",
          "type": "uint256[]"
        }
      ],
      "payable": false,
      "stateMutability": "view",
      "type": "function"
    },
    {
      "constant": false,
      "inputs": [
        {
          "name": "deadline",
          "type": "uint256"
        }
      ],
      "name": "submitRequest",
      "outputs": [
        {
          "name": "status",
          "type": "int256"
        },
        {
          "name": "requestID",
          "type": "uint256"
        }
      ],
      "payable": false,
      "stateMutability": "nonpayable",
      "type": "function"
    },
    {
      "constant": false,
      "inputs": [
        {
          "name": "requestID",
          "type": "uint256"
        },
        {
          "name": "quantity",
          "type": "uint256"
        },
        {
          "name": "flowerType",
          "type": "uint8"
        }
      ],
      "name": "submitRequestExtra",
      "outputs": [
        {
          "name": "status",
          "type": "int256"
        },
        {
          "name": "reqID",
          "type": "uint256"
        }
      ],
      "payable": false,
      "stateMutability": "nonpayable",
      "type": "function"
    },
    {
      "constant": false,
      "inputs": [
        {
          "name": "requestIdentifier",
          "type": "uint256"
        }
      ],
      "name": "closeRequest",
      "outputs": [
        {
          "name": "status",
          "type": "int256"
        }
      ],
      "payable": false,
      "stateMutability": "nonpayable",
      "type": "function"
    },
    {
      "constant": false,
      "inputs": [
        {
          "name": "requestIdentifier",
          "type": "uint256"
        },
        {
          "name": "",
          "type": "uint256[]"
        }
      ],
      "name": "decideRequest",
      "outputs": [
        {
          "name": "status",
          "type": "int256"
        }
      ],
      "payable": false,
      "stateMutability": "nonpayable",
      "type": "function"
    },
    {
      "constant": false,
      "inputs": [
        {
          "name": "requestIdentifier",
          "type": "uint256"
        }
      ],
      "name": "deleteRequest",
      "outputs": [
        {
          "name": "status",
          "type": "int256"
        }
      ],
      "payable": false,
      "stateMutability": "nonpayable",
      "type": "function"
    },
    {
      "constant": true,
      "inputs": [
        {
          "name": "interfaceID",
          "type": "bytes4"
        }
      ],
      "name": "supportsInterface",
      "outputs": [
        {
          "name": "",
          "type": "bool"
        }
      ],
      "payable": false,
      "stateMutability": "view",
      "type": "function"
    }
  ],
  "bytecode": "0x608060405234801561001057600080fd5b503360018190806001815401808255809150509060018203906000526020600020016000909192909190916101000a81548173ffffffffffffffffffffffffffffffffffffffff021916908373ffffffffffffffffffffffffffffffffffffffff16021790555050806000806101000a81548173ffffffffffffffffffffffffffffffffffffffff021916908373ffffffffffffffffffffffffffffffffffffffff1602179055505060016003819055506001600481905550600160028190555061419f806100e06000396000f30060806040526004361061013e576000357c0100000000000000000000000000000000000000000000000000000000900463ffffffff16806301ffc9a7146101435780631cdd165314610180578063200b60d4146101be5780632d06177a146101fc5780634579268a146102395780634ef44df314610279578063527ff7fd146102b6578063535e662a146102f45780635ae2cacf146103325780635c0bda23146103705780636edd48d7146103ae5780636f65c717146103ed5780638854e2731461042b5780638f4fcc371461046957806394066890146104a65780639a6843dc146104d2578063a8d088bb146104fe578063bacbd01d1461052a578063c3b2ff7614610568578063c3d1ec4914610594578063c58343ef146105d2578063e9a21bcd14610611578063f0282b7f1461064e578063f2fde38b1461068b575b600080fd5b34801561014f57600080fd5b5061016a60048036036101659190810190613bb3565b6106c8565b6040516101779190613de9565b60405180910390f35b34801561018c57600080fd5b506101a760048036036101a29190810190613bdc565b61094b565b6040516101b5929190613ed1565b60405180910390f35b3480156101ca57600080fd5b506101e560048036036101e09190810190613bdc565b610c90565b6040516101f3929190613ed1565b60405180910390f35b34801561020857600080fd5b50610223600480360361021e9190810190613b8a565b610d35565b6040516102309190613e04565b60405180910390f35b34801561024557600080fd5b50610260600480360361025b9190810190613bdc565b610f90565b6040516102709493929190613efa565b60405180910390f35b34801561028557600080fd5b506102a0600480360361029b9190810190613b8a565b6110b1565b6040516102ad9190613e04565b60405180910390f35b3480156102c257600080fd5b506102dd60048036036102d89190810190613c5d565b6113b4565b6040516102eb929190613ed1565b60405180910390f35b34801561030057600080fd5b5061031b60048036036103169190810190613bdc565b611906565b604051610329929190613e78565b60405180910390f35b34801561033e57600080fd5b5061035960048036036103549190810190613bdc565b611a2c565b604051610367929190613e78565b60405180910390f35b34801561037c57600080fd5b5061039760048036036103929190810190613bdc565b611c61565b6040516103a5929190613ea8565b60405180910390f35b3480156103ba57600080fd5b506103d560048036036103d09190810190613bdc565b611c9e565b6040516103e493929190613f3f565b60405180910390f35b3480156103f957600080fd5b50610414600480360361040f9190810190613bdc565b611d7b565b604051610422929190613ed1565b60405180910390f35b34801561043757600080fd5b50610452600480360361044d9190810190613bdc565b61220c565b604051610460929190613ea8565b60405180910390f35b34801561047557600080fd5b50610490600480360361048b9190810190613c05565b612249565b60405161049d9190613e04565b60405180910390f35b3480156104b257600080fd5b506104bb6125e0565b6040516104c9929190613e1f565b60405180910390f35b3480156104de57600080fd5b506104e761261a565b6040516104f5929190613e78565b60405180910390f35b34801561050a57600080fd5b50610513612687565b604051610521929190613e48565b60405180910390f35b34801561053657600080fd5b50610551600480360361054c9190810190613c99565b61272a565b60405161055f929190613ed1565b60405180910390f35b34801561057457600080fd5b5061057d612aed565b60405161058b929190613e78565b60405180910390f35b3480156105a057600080fd5b506105bb60048036036105b69190810190613bdc565b612b5a565b6040516105c9929190613ea8565b60405180910390f35b3480156105de57600080fd5b506105f960048036036105f49190810190613bdc565b612c09565b60405161060893929190613f76565b60405180910390f35b34801561061d57600080fd5b5061063860048036036106339190810190613bdc565b612ce9565b6040516106459190613e04565b60405180910390f35b34801561065a57600080fd5b5061067560048036036106709190810190613bdc565b613247565b6040516106829190613e04565b60405180910390f35b34801561069757600080fd5b506106b260048036036106ad9190810190613b8a565b613528565b6040516106bf9190613e04565b60405180910390f35b60006106d3826136d4565b80610944575063e9a21bcd7c010000000000000000000000000000000000000000000000000000000002638f4fcc377c01000000000000000000000000000000000000000000000000000000000263f0282b7f7c010000000000000000000000000000000000000000000000000000000002631cdd16537c010000000000000000000000000000000000000000000000000000000002635ae2cacf7c01000000000000000000000000000000000000000000000000000000000263c3d1ec497c010000000000000000000000000000000000000000000000000000000002638854e2737c010000000000000000000000000000000000000000000000000000000002636f65c7177c010000000000000000000000000000000000000000000000000000000002634579268a7c010000000000000000000000000000000000000000000000000000000002635c0bda237c01000000000000000000000000000000000000000000000000000000000263535e662a7c01000000000000000000000000000000000000000000000000000000000263c58343ef7c01000000000000000000000000000000000000000000000000000000000263c3b2ff767c010000000000000000000000000000000000000000000000000000000002639a6843dc7c01000000000000000000000000000000000000000000000000000000000263940668907c01000000000000000000000000000000000000000000000000000000000218181818181818181818181818187bffffffffffffffffffffffffffffffffffffffffffffffffffffffff1916827bffffffffffffffffffffffffffffffffffffffffffffffffffffffff1916145b9050919050565b60008061095661393b565b6000809054906101000a900473ffffffffffffffffffffffffffffffffffffffff1673ffffffffffffffffffffffffffffffffffffffff163373ffffffffffffffffffffffffffffffffffffffff1614806109b657506109b53361381b565b5b1515610a1a577fc96f9014410a379ca94b6274387743accd312d7f3308b89885162409ab79ba466001600a8111156109ea57fe5b6040516109f79190613e04565b60405180910390a16001600a811115610a0c57fe5b600080905092509250610c8a565b6000809054906101000a900473ffffffffffffffffffffffffffffffffffffffff1673ffffffffffffffffffffffffffffffffffffffff163373ffffffffffffffffffffffffffffffffffffffff161480610a7a5750610a793361381b565b5b1515610a8557600080fd5b838160600181815250506003548160000181815250506001600360008282540192505081905550600181608001901515908115158152505060008160a001906002811115610acf57fe5b90816002811115610adc57fe5b8152505060008160c0019015159081151581525050806005600083600001518152602001908152602001600020600082015181600001556020820151816001015560408201518160020160006101000a81548160ff02191690836003811115610b4157fe5b02179055506060820151816003015560808201518160040160006101000a81548160ff02191690831515021790555060a08201518160040160016101000a81548160ff02191690836002811115610b9457fe5b021790555060c08201518160040160026101000a81548160ff02191690831515021790555060e0820151816005019080519060200190610bd59291906139a9565b50610100820151816006015561012082015181600701559050507fc96f9014410a379ca94b6274387743accd312d7f3308b89885162409ab79ba466000600a811115610c1d57fe5b604051610c2a9190613e04565b60405180910390a17f1ae31ed5af955981f8f956e11e030e2d8650cf0b1c5fa1177f40a94c92bc239381600001518260600151604051610c6b929190613fad565b60405180910390a16000600a811115610c8057fe5b8160000151925092505b50915091565b6000806006600084815260200190815260200160002060030160149054906101000a900460ff161515610cd8576002600a811115610cca57fe5b600080905091509150610d30565b6006600084815260200190815260200160002060030160149054906101000a900460ff161515610d0757600080fd5b6000600a811115610d1457fe5b6006600085815260200190815260200160002060010154915091505b915091565b6000806000809054906101000a900473ffffffffffffffffffffffffffffffffffffffff1673ffffffffffffffffffffffffffffffffffffffff163373ffffffffffffffffffffffffffffffffffffffff16141515610de5577fc96f9014410a379ca94b6274387743accd312d7f3308b89885162409ab79ba466001600a811115610dbc57fe5b604051610dc99190613e04565b60405180910390a16001600a811115610dde57fe5b9150610f8a565b6000809054906101000a900473ffffffffffffffffffffffffffffffffffffffff1673ffffffffffffffffffffffffffffffffffffffff163373ffffffffffffffffffffffffffffffffffffffff16141515610e4057600080fd5b600090505b600180549050811015610ed1578273ffffffffffffffffffffffffffffffffffffffff16600182815481101515610e7857fe5b9060005260206000200160009054906101000a900473ffffffffffffffffffffffffffffffffffffffff1673ffffffffffffffffffffffffffffffffffffffff161415610ec457610f8a565b8080600101915050610e45565b60018390806001815401808255809150509060018203906000526020600020016000909192909190916101000a81548173ffffffffffffffffffffffffffffffffffffffff021916908373ffffffffffffffffffffffffffffffffffffffff160217905550507fc96f9014410a379ca94b6274387743accd312d7f3308b89885162409ab79ba466000600a811115610f6557fe5b604051610f729190613e04565b60405180910390a16000600a811115610f8757fe5b91505b50919050565b6000806000806006600086815260200190815260200160002060030160149054906101000a900460ff161515610fe8576002600a811115610fcd57fe5b600080600082925081915080905093509350935093506110aa565b6006600086815260200190815260200160002060030160149054906101000a900460ff16151561101757600080fd5b6000600a81111561102457fe5b60066000878152602001908152602001600020600201546006600088815260200190815260200160002060030160009054906101000a900473ffffffffffffffffffffffffffffffffffffffff166006600089815260200190815260200160002060030160159054906101000a900460ff1660028111156110a157fe5b93509350935093505b9193509193565b60008060008060009054906101000a900473ffffffffffffffffffffffffffffffffffffffff1673ffffffffffffffffffffffffffffffffffffffff163373ffffffffffffffffffffffffffffffffffffffff16141515611163577fc96f9014410a379ca94b6274387743accd312d7f3308b89885162409ab79ba466001600a81111561113a57fe5b6040516111479190613e04565b60405180910390a16001600a81111561115c57fe5b92506113ad565b6000809054906101000a900473ffffffffffffffffffffffffffffffffffffffff1673ffffffffffffffffffffffffffffffffffffffff163373ffffffffffffffffffffffffffffffffffffffff161415156111be57600080fd5b600091505b6001805490508210156113ac578373ffffffffffffffffffffffffffffffffffffffff166001838154811015156111f657fe5b9060005260206000200160009054906101000a900473ffffffffffffffffffffffffffffffffffffffff1673ffffffffffffffffffffffffffffffffffffffff16141561139f578190505b60018080549050038110156112f057600180820181548110151561126157fe5b9060005260206000200160009054906101000a900473ffffffffffffffffffffffffffffffffffffffff1660018281548110151561129b57fe5b9060005260206000200160006101000a81548173ffffffffffffffffffffffffffffffffffffffff021916908373ffffffffffffffffffffffffffffffffffffffff1602179055508080600101915050611241565b60018080805490500381548110151561130557fe5b9060005260206000200160006101000a81549073ffffffffffffffffffffffffffffffffffffffff0219169055600180548091906001900361134791906139f6565b507fc96f9014410a379ca94b6274387743accd312d7f3308b89885162409ab79ba466000600a81111561137657fe5b6040516113839190613e04565b60405180910390a16000600a81111561139857fe5b92506113ad565b81806001019250506111c3565b5b5050919050565b6000806113bf613a22565b6006600086815260200190815260200160002060c060405190810160405290816000820154815260200160018201548152602001600282015481526020016003820160009054906101000a900473ffffffffffffffffffffffffffffffffffffffff1673ffffffffffffffffffffffffffffffffffffffff1673ffffffffffffffffffffffffffffffffffffffff1681526020016003820160149054906101000a900460ff161515151581526020016003820160159054906101000a900460ff16600281111561148b57fe5b600281111561149657fe5b81525050905080608001511515611505577fc96f9014410a379ca94b6274387743accd312d7f3308b89885162409ab79ba466002600a8111156114d557fe5b6040516114e29190613e04565b60405180910390a16002600a8111156114f757fe5b6000809050925092506118fe565b6000600281111561151257fe5b8160a00151600281111561152257fe5b141515611587577fc96f9014410a379ca94b6274387743accd312d7f3308b89885162409ab79ba466005600a81111561155757fe5b6040516115649190613e04565b60405180910390a16005600a81111561157957fe5b6000809050925092506118fe565b3373ffffffffffffffffffffffffffffffffffffffff16816060015173ffffffffffffffffffffffffffffffffffffffff1614151561161e577fc96f9014410a379ca94b6274387743accd312d7f3308b89885162409ab79ba466001600a8111156115ee57fe5b6040516115fb9190613e04565b60405180910390a16001600a81111561161057fe5b6000809050925092506118fe565b6001600281111561162b57fe5b600560008360400151815260200190815260200160002060040160019054906101000a900460ff16600281111561165e57fe5b1415156116c3577fc96f9014410a379ca94b6274387743accd312d7f3308b89885162409ab79ba466004600a81111561169357fe5b6040516116a09190613e04565b60405180910390a16004600a8111156116b557fe5b6000809050925092506118fe565b806080015180156116ee5750600060028111156116dc57fe5b8160a0015160028111156116ec57fe5b145b801561172957503373ffffffffffffffffffffffffffffffffffffffff16816060015173ffffffffffffffffffffffffffffffffffffffff16145b801561177257506001600281111561173d57fe5b600560008360400151815260200190815260200160002060040160019054906101000a900460ff16600281111561177057fe5b145b151561177d57600080fd5b8381602001818152505060018160a00190600281111561179957fe5b908160028111156117a657fe5b81525050806006600087815260200190815260200160002060008201518160000155602082015181600101556040820151816002015560608201518160030160006101000a81548173ffffffffffffffffffffffffffffffffffffffff021916908373ffffffffffffffffffffffffffffffffffffffff16021790555060808201518160030160146101000a81548160ff02191690831515021790555060a08201518160030160156101000a81548160ff0219169083600281111561186757fe5b02179055509050507fc96f9014410a379ca94b6274387743accd312d7f3308b89885162409ab79ba466000600a81111561189d57fe5b6040516118aa9190613e04565b60405180910390a17f68977fa16e2ef44460fad84ae06a42c7405d4192fcca9f40e9e4d197952fb19f85856040516118e3929190613fad565b60405180910390a16000600a8111156118f857fe5b85925092505b509250929050565b600060606005600084815260200190815260200160002060040160009054906101000a900460ff16151561197e576002600a81111561194157fe5b60006040519080825280602002602001820160405280156119715781602001602082028038833980820191505090505b5080905091509150611a27565b6005600084815260200190815260200160002060040160009054906101000a900460ff1615156119ad57600080fd5b6000600a8111156119ba57fe5b6005600085815260200190815260200160002060050180805480602002602001604051908101604052809291908181526020018280548015611a1b57602002820191906000526020600020905b815481526020019060010190808311611a07575b50505050509050915091505b915091565b600060608060606005600086815260200190815260200160002060040160009054906101000a900460ff161515611aa7576002600a811115611a6a57fe5b6000604051908082528060200260200182016040528015611a9a5781602001602082028038833980820191505090505b5080905093509350611c5a565b6005600086815260200190815260200160002060040160029054906101000a900460ff161515611b1b576006600a811115611ade57fe5b6000604051908082528060200260200182016040528015611b0e5781602001602082028038833980820191505090505b5080905093509350611c5a565b6005600086815260200190815260200160002060040160009054906101000a900460ff168015611b6b57506005600086815260200190815260200160002060040160029054906101000a900460ff165b1515611b7657600080fd5b60006005600087815260200190815260200160002060060154141515611c14576001604051908082528060200260200182016040528015611bc65781602001602082028038833980820191505090505b5091506005600086815260200190815260200160002060060154826000815181101515611bef57fe5b90602001906020020181815250506000600a811115611c0a57fe5b8293509350611c5a565b6000604051908082528060200260200182016040528015611c445781602001602082028038833980820191505090505b5090506000600a811115611c5457fe5b81935093505b5050915091565b6000806000600a811115611c7157fe5b6006600085815260200190815260200160002060030160149054906101000a900460ff1691509150915091565b60008060006005600085815260200190815260200160002060040160009054906101000a900460ff161515611cf6576002600a811115611cda57fe5b6000806003811115611ce857fe5b819150925092509250611d74565b6005600085815260200190815260200160002060040160009054906101000a900460ff161515611d2557600080fd5b6000600a811115611d3257fe5b60056000868152602001908152602001600020600101546005600087815260200190815260200160002060020160009054906101000a900460ff169250925092505b9193909250565b600080611d86613a22565b6005600085815260200190815260200160002060040160009054906101000a900460ff161515611e0e577fc96f9014410a379ca94b6274387743accd312d7f3308b89885162409ab79ba466002600a811115611dde57fe5b604051611deb9190613e04565b60405180910390a16002600a811115611e0057fe5b600080905092509250612206565b6005600085815260200190815260200160002060030154421115611e8a577fc96f9014410a379ca94b6274387743accd312d7f3308b89885162409ab79ba466003600a811115611e5a57fe5b604051611e679190613e04565b60405180910390a16003600a811115611e7c57fe5b600080905092509250612206565b60016002811115611e9757fe5b6005600086815260200190815260200160002060040160019054906101000a900460ff166002811115611ec657fe5b141515611f2b577fc96f9014410a379ca94b6274387743accd312d7f3308b89885162409ab79ba466004600a811115611efb57fe5b604051611f089190613e04565b60405180910390a16004600a811115611f1d57fe5b600080905092509250612206565b6005600085815260200190815260200160002060040160009054906101000a900460ff168015611f71575060056000858152602001908152602001600020600301544211155b8015611fb6575060016002811115611f8557fe5b6005600086815260200190815260200160002060040160019054906101000a900460ff166002811115611fb457fe5b145b1515611fc157600080fd5b8381604001818152505033816060019073ffffffffffffffffffffffffffffffffffffffff16908173ffffffffffffffffffffffffffffffffffffffff16815250506004548160000181815250506001600460008282540192505081905550600181608001901515908115158152505060008160a00190600281111561204357fe5b9081600281111561205057fe5b8152505080600660008360000151815260200190815260200160002060008201518160000155602082015181600101556040820151816002015560608201518160030160006101000a81548173ffffffffffffffffffffffffffffffffffffffff021916908373ffffffffffffffffffffffffffffffffffffffff16021790555060808201518160030160146101000a81548160ff02191690831515021790555060a08201518160030160156101000a81548160ff0219169083600281111561211557fe5b02179055509050506005600082604001518152602001908152602001600020600501816000015190806001815401808255809150509060018203906000526020600020016000909192909190915055507fc96f9014410a379ca94b6274387743accd312d7f3308b89885162409ab79ba466000600a81111561219357fe5b6040516121a09190613e04565b60405180910390a17f2940f4daba49dbd14db2f323e948dd02e180127937dc4af273ea8cb735be0a0c8160000151826040015183606001516040516121e793929190613fd6565b60405180910390a16000600a8111156121fc57fe5b8160000151925092505b50915091565b6000806000600a81111561221c57fe5b6005600085815260200190815260200160002060040160009054906101000a900460ff1691509150915091565b600080600080612257613a22565b6000809054906101000a900473ffffffffffffffffffffffffffffffffffffffff1673ffffffffffffffffffffffffffffffffffffffff163373ffffffffffffffffffffffffffffffffffffffff1614806122b757506122b63361381b565b5b1515612314577fc96f9014410a379ca94b6274387743accd312d7f3308b89885162409ab79ba466001600a8111156122eb57fe5b6040516122f89190613e04565b60405180910390a16001600a81111561230d57fe5b94506125d5565b6000809054906101000a900473ffffffffffffffffffffffffffffffffffffffff1673ffffffffffffffffffffffffffffffffffffffff163373ffffffffffffffffffffffffffffffffffffffff16148061237457506123733361381b565b5b151561237f57600080fd5b61238888613247565b506000935060009250600091505b60056000898152602001908152602001600020600501805490508210156125385760066000600560008b8152602001908152602001600020600501848154811015156123de57fe5b9060005260206000200154815260200190815260200160002060c060405190810160405290816000820154815260200160018201548152602001600282015481526020016003820160009054906101000a900473ffffffffffffffffffffffffffffffffffffffff1673ffffffffffffffffffffffffffffffffffffffff1673ffffffffffffffffffffffffffffffffffffffff1681526020016003820160149054906101000a900460ff161515151581526020016003820160159054906101000a900460ff1660028111156124b057fe5b60028111156124bb57fe5b815250509050600160028111156124ce57fe5b8160a0015160028111156124de57fe5b1480156124ee5750806020015184105b1561252b5780602001519350600560008981526020019081526020016000206005018281548110151561251d57fe5b906000526020600020015492505b8180600101925050612396565b82600560008a8152602001908152602001600020600601819055506001600560008a815260200190815260200160002060040160026101000a81548160ff0219169083151502179055507fc96f9014410a379ca94b6274387743accd312d7f3308b89885162409ab79ba466000600a8111156125b057fe5b6040516125bd9190613e04565b60405180910390a16000600a8111156125d257fe5b94505b505050509392505050565b6000806000600a8111156125f057fe5b6000809054906101000a900473ffffffffffffffffffffffffffffffffffffffff16915091509091565b600060606000600a81111561262b57fe5b60078080548060200260200160405190810160405280929190818152602001828054801561267857602002820191906000526020600020905b815481526020019060010190808311612664575b50505050509050915091509091565b600060606000600a81111561269857fe5b60018080548060200260200160405190810160405280929190818152602001828054801561271b57602002820191906000526020600020905b8160009054906101000a900473ffffffffffffffffffffffffffffffffffffffff1673ffffffffffffffffffffffffffffffffffffffff16815260200190600101908083116126d1575b50505050509050915091509091565b6000806000809054906101000a900473ffffffffffffffffffffffffffffffffffffffff1673ffffffffffffffffffffffffffffffffffffffff163373ffffffffffffffffffffffffffffffffffffffff16148061278d575061278c3361381b565b5b15156127f1577fc96f9014410a379ca94b6274387743accd312d7f3308b89885162409ab79ba466001600a8111156127c157fe5b6040516127ce9190613e04565b60405180910390a16001600a8111156127e357fe5b600080905091509150612ae5565b6005600086815260200190815260200160002060040160009054906101000a900460ff161515612879577fc96f9014410a379ca94b6274387743accd312d7f3308b89885162409ab79ba466002600a81111561284957fe5b6040516128569190613e04565b60405180910390a16002600a81111561286b57fe5b600080905091509150612ae5565b6000600281111561288657fe5b6005600087815260200190815260200160002060040160019054906101000a900460ff1660028111156128b557fe5b14151561291a577fc96f9014410a379ca94b6274387743accd312d7f3308b89885162409ab79ba466005600a8111156128ea57fe5b6040516128f79190613e04565b60405180910390a16005600a81111561290c57fe5b600080905091509150612ae5565b6000809054906101000a900473ffffffffffffffffffffffffffffffffffffffff1673ffffffffffffffffffffffffffffffffffffffff163373ffffffffffffffffffffffffffffffffffffffff16148061297a57506129793361381b565b5b151561298557600080fd5b6005600086815260200190815260200160002060040160009054906101000a900460ff1680156129ee5750600060028111156129bd57fe5b6005600087815260200190815260200160002060040160019054906101000a900460ff1660028111156129ec57fe5b145b15156129f957600080fd5b836005600087815260200190815260200160002060010181905550826005600087815260200190815260200160002060020160006101000a81548160ff02191690836003811115612a4657fe5b0217905550612a54856138be565b7fc96f9014410a379ca94b6274387743accd312d7f3308b89885162409ab79ba466000600a811115612a8257fe5b604051612a8f9190613e04565b60405180910390a17fc62ec5b68357a3ee6c05555fc7e330f3199cab1474afd5cf87d7103170fb943b858585604051612aca9392919061400d565b60405180910390a16000600a811115612adf57fe5b85915091505b935093915050565b600060606000600a811115612afe57fe5b600880805480602002602001604051908101604052809291908181526020018280548015612b4b57602002820191906000526020600020905b815481526020019060010190808311612b37575b50505050509050915091509091565b6000806005600084815260200190815260200160002060040160009054906101000a900460ff161515612b9f576002600a811115612b9457fe5b600091509150612c04565b6005600084815260200190815260200160002060040160009054906101000a900460ff161515612bce57600080fd5b6000600a811115612bdb57fe5b6005600085815260200190815260200160002060040160029054906101000a900460ff16915091505b915091565b60008060006005600085815260200190815260200160002060040160009054906101000a900460ff161515612c59576002600a811115612c4557fe5b600080819150809050925092509250612ce2565b6005600085815260200190815260200160002060040160009054906101000a900460ff161515612c8857600080fd5b6000600a811115612c9557fe5b60056000868152602001908152602001600020600301546005600087815260200190815260200160002060040160019054906101000a900460ff166002811115612cdb57fe5b9250925092505b9193909250565b6000806000806000809054906101000a900473ffffffffffffffffffffffffffffffffffffffff1673ffffffffffffffffffffffffffffffffffffffff163373ffffffffffffffffffffffffffffffffffffffff161480612d4f5750612d4e3361381b565b5b1515612dac577fc96f9014410a379ca94b6274387743accd312d7f3308b89885162409ab79ba466001600a811115612d8357fe5b604051612d909190613e04565b60405180910390a16001600a811115612da557fe5b935061323f565b600280811115612db857fe5b6005600087815260200190815260200160002060040160019054906101000a900460ff166002811115612de757fe5b141515612e45577fc96f9014410a379ca94b6274387743accd312d7f3308b89885162409ab79ba466007600a811115612e1c57fe5b604051612e299190613e04565b60405180910390a16007600a811115612e3e57fe5b935061323f565b436002546005600088815260200190815260200160002060070154011115612ebe577fc96f9014410a379ca94b6274387743accd312d7f3308b89885162409ab79ba466008600a811115612e9557fe5b604051612ea29190613e04565b60405180910390a16008600a811115612eb757fe5b935061323f565b6000809054906101000a900473ffffffffffffffffffffffffffffffffffffffff1673ffffffffffffffffffffffffffffffffffffffff163373ffffffffffffffffffffffffffffffffffffffff161480612f1e5750612f1d3361381b565b5b1515612f2957600080fd5b600280811115612f3557fe5b6005600087815260200190815260200160002060040160019054906101000a900460ff166002811115612f6457fe5b148015612f8b57504360025460056000888152602001908152602001600020600701540111155b1515612f9657600080fd5b600092505b600560008681526020019081526020016000206005018054905083101561307357600660006005600088815260200190815260200160002060050185815481101515612fe357fe5b90600052602060002001548152602001908152602001600020600080820160009055600182016000905560028201600090556003820160006101000a81549073ffffffffffffffffffffffffffffffffffffffff02191690556003820160146101000a81549060ff02191690556003820160156101000a81549060ff021916905550508280600101935050612f9b565b6005600086815260200190815260200160002060008082016000905560018201600090556002820160006101000a81549060ff021916905560038201600090556004820160006101000a81549060ff02191690556004820160016101000a81549060ff02191690556004820160026101000a81549060ff02191690556005820160006130ff9190613a7c565b600682016000905560078201600090555050600091505b60088054905082101561323e578460088381548110151561313357fe5b90600052602060002001541415613231578190505b60016008805490500381101561319f5760086001820181548110151561316a57fe5b906000526020600020015460088281548110151561318457fe5b90600052602060002001819055508080600101915050613148565b60086001600880549050038154811015156131b657fe5b906000526020600020016000905560088054809190600190036131d99190613a9d565b507fc96f9014410a379ca94b6274387743accd312d7f3308b89885162409ab79ba466000600a81111561320857fe5b6040516132159190613e04565b60405180910390a16000600a81111561322a57fe5b935061323f565b8180600101925050613116565b5b505050919050565b60008060008060009054906101000a900473ffffffffffffffffffffffffffffffffffffffff1673ffffffffffffffffffffffffffffffffffffffff163373ffffffffffffffffffffffffffffffffffffffff1614806132ac57506132ab3361381b565b5b1515613309577fc96f9014410a379ca94b6274387743accd312d7f3308b89885162409ab79ba466001600a8111156132e057fe5b6040516132ed9190613e04565b60405180910390a16001600a81111561330257fe5b9250613521565b6000809054906101000a900473ffffffffffffffffffffffffffffffffffffffff1673ffffffffffffffffffffffffffffffffffffffff163373ffffffffffffffffffffffffffffffffffffffff16148061336957506133683361381b565b5b151561337457600080fd5b60026005600086815260200190815260200160002060040160016101000a81548160ff021916908360028111156133a757fe5b02179055504360056000868152602001908152602001600020600701819055506008849080600181540180825580915050906001820390600052602060002001600090919290919091505550600091505b600780549050821015613520578360078381548110151561341557fe5b90600052602060002001541415613513578190505b6001600780549050038110156134815760076001820181548110151561344c57fe5b906000526020600020015460078281548110151561346657fe5b9060005260206000200181905550808060010191505061342a565b600760016007805490500381548110151561349857fe5b906000526020600020016000905560078054809190600190036134bb9190613a9d565b507fc96f9014410a379ca94b6274387743accd312d7f3308b89885162409ab79ba466000600a8111156134ea57fe5b6040516134f79190613e04565b60405180910390a16000600a81111561350c57fe5b9250613521565b81806001019250506133f8565b5b5050919050565b60008060009054906101000a900473ffffffffffffffffffffffffffffffffffffffff1673ffffffffffffffffffffffffffffffffffffffff163373ffffffffffffffffffffffffffffffffffffffff161415156135d7577fc96f9014410a379ca94b6274387743accd312d7f3308b89885162409ab79ba466001600a8111156135ae57fe5b6040516135bb9190613e04565b60405180910390a16001600a8111156135d057fe5b90506136cf565b6000809054906101000a900473ffffffffffffffffffffffffffffffffffffffff1673ffffffffffffffffffffffffffffffffffffffff163373ffffffffffffffffffffffffffffffffffffffff1614151561363257600080fd5b61363b82610d35565b50816000806101000a81548173ffffffffffffffffffffffffffffffffffffffff021916908373ffffffffffffffffffffffffffffffffffffffff1602179055507fc96f9014410a379ca94b6274387743accd312d7f3308b89885162409ab79ba466000600a8111156136aa57fe5b6040516136b79190613e04565b60405180910390a16000600a8111156136cc57fe5b90505b919050565b60006301ffc9a77c0100000000000000000000000000000000000000000000000000000000027bffffffffffffffffffffffffffffffffffffffffffffffffffffffff1916827bffffffffffffffffffffffffffffffffffffffffffffffffffffffff191614806138145750634ef44df37c01000000000000000000000000000000000000000000000000000000000263a8d088bb7c010000000000000000000000000000000000000000000000000000000002632d06177a7c01000000000000000000000000000000000000000000000000000000000263f2fde38b7c0100000000000000000000000000000000000000000000000000000000021818187bffffffffffffffffffffffffffffffffffffffffffffffffffffffff1916827bffffffffffffffffffffffffffffffffffffffffffffffffffffffff1916145b9050919050565b600080600090505b6001805490508110156138b3578273ffffffffffffffffffffffffffffffffffffffff1660018281548110151561385657fe5b9060005260206000200160009054906101000a900473ffffffffffffffffffffffffffffffffffffffff1673ffffffffffffffffffffffffffffffffffffffff1614156138a657600191506138b8565b8080600101915050613823565b600091505b50919050565b60016005600083815260200190815260200160002060040160016101000a81548160ff021916908360028111156138f157fe5b021790555060076005600083815260200190815260200160002060000154908060018154018082558091505090600182039060005260206000200160009091929091909150555050565b6101406040519081016040528060008152602001600081526020016000600381111561396357fe5b8152602001600081526020016000151581526020016000600281111561398557fe5b81526020016000151581526020016060815260200160008152602001600081525090565b8280548282559060005260206000209081019282156139e5579160200282015b828111156139e45782518255916020019190600101906139c9565b5b5090506139f29190613ac9565b5090565b815481835581811115613a1d57818360005260206000209182019101613a1c9190613ac9565b5b505050565b60c060405190810160405280600081526020016000815260200160008152602001600073ffffffffffffffffffffffffffffffffffffffff16815260200160001515815260200160006002811115613a7657fe5b81525090565b5080546000825590600052602060002090810190613a9a9190613ac9565b50565b815481835581811115613ac457818360005260206000209182019101613ac39190613ac9565b5b505050565b613aeb91905b80821115613ae7576000816000905550600101613acf565b5090565b90565b6000613afa82356140e4565b905092915050565b60008083601f8401121515613b1657600080fd5b8235905067ffffffffffffffff811115613b2f57600080fd5b602083019150836020820283011115613b4757600080fd5b9250929050565b6000613b5a8235614104565b905092915050565b6000613b6e8235614130565b905092915050565b6000613b828235614149565b905092915050565b600060208284031215613b9c57600080fd5b6000613baa84828501613aee565b91505092915050565b600060208284031215613bc557600080fd5b6000613bd384828501613b4e565b91505092915050565b600060208284031215613bee57600080fd5b6000613bfc84828501613b76565b91505092915050565b600080600060408486031215613c1a57600080fd5b6000613c2886828701613b76565b935050602084013567ffffffffffffffff811115613c4557600080fd5b613c5186828701613b02565b92509250509250925092565b60008060408385031215613c7057600080fd5b6000613c7e85828601613b76565b9250506020613c8f85828601613b76565b9150509250929050565b600080600060608486031215613cae57600080fd5b6000613cbc86828701613b76565b9350506020613ccd86828701613b76565b9250506040613cde86828701613b62565b9150509250925092565b613cf18161408e565b82525050565b6000613d028261405e565b808452602084019350613d1483614044565b60005b82811015613d4657613d2a868351613ce8565b613d3382614074565b9150602086019550600181019050613d17565b50849250505092915050565b6000613d5d82614069565b808452602084019350613d6f83614051565b60005b82811015613da157613d85868351613dda565b613d8e82614081565b9150602086019550600181019050613d72565b50849250505092915050565b613db6816140ae565b82525050565b613dc581614153565b82525050565b613dd4816140d0565b82525050565b613de3816140da565b82525050565b6000602082019050613dfe6000830184613dad565b92915050565b6000602082019050613e196000830184613dcb565b92915050565b6000604082019050613e346000830185613dcb565b613e416020830184613ce8565b9392505050565b6000604082019050613e5d6000830185613dcb565b8181036020830152613e6f8184613cf7565b90509392505050565b6000604082019050613e8d6000830185613dcb565b8181036020830152613e9f8184613d52565b90509392505050565b6000604082019050613ebd6000830185613dcb565b613eca6020830184613dad565b9392505050565b6000604082019050613ee66000830185613dcb565b613ef36020830184613dda565b9392505050565b6000608082019050613f0f6000830187613dcb565b613f1c6020830186613dda565b613f296040830185613ce8565b613f366060830184613dda565b95945050505050565b6000606082019050613f546000830186613dcb565b613f616020830185613dda565b613f6e6040830184613dbc565b949350505050565b6000606082019050613f8b6000830186613dcb565b613f986020830185613dda565b613fa56040830184613dda565b949350505050565b6000604082019050613fc26000830185613dda565b613fcf6020830184613dda565b9392505050565b6000606082019050613feb6000830186613dda565b613ff86020830185613dda565b6140056040830184613ce8565b949350505050565b60006060820190506140226000830186613dda565b61402f6020830185613dda565b61403c6040830184613dbc565b949350505050565b6000602082019050919050565b6000602082019050919050565b600081519050919050565b600081519050919050565b6000602082019050919050565b6000602082019050919050565b600073ffffffffffffffffffffffffffffffffffffffff82169050919050565b60008115159050919050565b60006004821015156140c857fe5b819050919050565b6000819050919050565b6000819050919050565b600073ffffffffffffffffffffffffffffffffffffffff82169050919050565b60007fffffffff0000000000000000000000000000000000000000000000000000000082169050919050565b600060048210151561414157600080fd5b819050919050565b6000819050919050565b600061415e826140ba565b90509190505600a265627a7a723058203451e42f1ad963499df507668772783a4801e25cbf4b832644498cefb08f84816c6578706572696d656e74616cf50037",
  "source": "pragma solidity ^0.4.23;\npragma experimental ABIEncoderV2;\n\nimport \"./MarketPlace.sol\";\nimport \"./MultiManagersBaseContract.sol\";\n\ncontract FlowerMarketPlace is MarketPlace, MultiManagersBaseContract {\n\n    enum Stage {Pending, Open, Closed}\n\n    enum FlowerType {Rose, Tulip, Jasmine, White}\n\n    struct Request {\n        uint ID;\n        uint quantity;\n        FlowerType flowerType;\n        uint deadline;\n        bool isDefined;\n        Stage reqStage;\n        bool isDecided;\n        uint[] offerIDs;\n        uint acceptedOfferID;\n        uint closingBlock;\n    }\n\n    struct Offer {\n        uint ID;\n        uint price;\n        uint requestID;\n        address offerMaker;\n        bool isDefined;\n        Stage offStage;\n    }\n\n    uint waitBeforeDeleteBlocks;\n\n    uint private reqNum;\n    uint private offNum;\n    mapping (uint => Request) private requests;\n    mapping (uint => Offer) private offers;\n\n    uint[] private openRequestIDs;\n    uint[] private closedRequestIDs;\n\n    event RequestAdded(uint requestID, uint deadline);\n    event RequestExtraAdded(uint requestID, uint quantity, FlowerType flowerType);\n    event OfferAdded(uint offerID, uint requestID, address offerMaker);\n    event OfferExtraAdded(uint offerID, uint price);\n\n    constructor() MultiManagersBaseContract(msg.sender) public {\n        reqNum = 1;\n        offNum = 1;\n        waitBeforeDeleteBlocks = 1;\n    }\n\n    // Get the information of market, for example the owner, etc.\n    function getMarketInformation() public view returns (int status, address ownerAddress) {\n        return (int(Status.Successful), owner);\n    }\n\n    // Get the Identifiers of the requests which are not closed yet.\n    function getOpenRequestIdentifiers() public view returns (int status, uint[]) {\n        return (int(Status.Successful), openRequestIDs);\n    }\n\n    // Get the Identifiers of the requests which are closed.\n    function getClosedRequestIdentifiers() public view returns (int status, uint[]) {\n        return (int(Status.Successful), closedRequestIDs);\n    }\n\n    // Get general details of a request.\n    function getRequest(uint requestIdentifier) public view returns (int status, uint deadline, uint stage) {\n        if(!requests[requestIdentifier].isDefined) {\n            return (int(Status.UndefinedID), 0, 0);\n        }\n        require(requests[requestIdentifier].isDefined);\n\n        return (int(Status.Successful), requests[requestIdentifier].deadline, uint(requests[requestIdentifier].reqStage));\n    }\n\n    // Get the specific stipulations of a request.\n    function getRequestExtra(uint requestIdentifier) public view returns (int status, uint quantity, FlowerType flowerType) {\n        if(!requests[requestIdentifier].isDefined) {\n            return (int(Status.UndefinedID), 0, FlowerType(0));\n        }\n        require(requests[requestIdentifier].isDefined);\n\n        return (int(Status.Successful), requests[requestIdentifier].quantity, requests[requestIdentifier].flowerType);\n    }\n\n    // Get offer identifiers for a request.\n    function getRequestOfferIDs(uint requestIdentifier) public view returns (int status, uint[] offerIDs) {\n        if(!requests[requestIdentifier].isDefined) {\n            return (int(Status.UndefinedID), new uint[](0));\n        }\n        require(requests[requestIdentifier].isDefined);\n\n        return (int(Status.Successful), requests[requestIdentifier].offerIDs);\n    }\n\n    // Check if an offer with the specified offer identifier is defined.\n    function isOfferDefined(uint offerIdentifier) public view returns (int status, bool) {\n        return (int(Status.Successful), offers[offerIdentifier].isDefined);\n    }\n\n    // Get general details of an offer.\n    function getOffer(uint offerIdentifier) public view returns (int status, uint requestID, address offerMaker, uint stage) {\n        if(!offers[offerIdentifier].isDefined) {\n            return (int(Status.UndefinedID), 0, 0, 0);\n        }\n        require(offers[offerIdentifier].isDefined);\n\n        return (int(Status.Successful), offers[offerIdentifier].requestID, offers[offerIdentifier].offerMaker, uint(offers[offerIdentifier].offStage));\n    }\n\n    // Get specific details of an offer.\n    function getOfferExtra(uint offerIdentifier) public view returns (int status, uint price) {\n        if(!offers[offerIdentifier].isDefined) {\n            return (int(Status.UndefinedID), 0);\n        }\n        require(offers[offerIdentifier].isDefined);\n\n        return (int(Status.Successful), offers[offerIdentifier].price);\n    }\n\n    // By sending the identifier of a request, others can make offer to buy flowers.\n    function submitOffer(uint requestID) public returns (int status, uint offerID) {\n        if(!requests[requestID].isDefined) {\n            emit FunctionStatus(int(Status.UndefinedID));\n            return (int(Status.UndefinedID), 0);\n        }\n        if(now > requests[requestID].deadline) {\n            emit FunctionStatus(int(Status.DeadlinePassed));\n            return (int(Status.DeadlinePassed), 0);\n        }\n        if(requests[requestID].reqStage != Stage.Open) {\n            emit FunctionStatus(int(Status.RequestNotOpen));\n            return (int(Status.RequestNotOpen), 0);\n        }\n        require(requests[requestID].isDefined && now <= requests[requestID].deadline\n            && requests[requestID].reqStage == Stage.Open);\n\n        Offer memory offer;\n        offer.requestID = requestID;\n        offer.offerMaker = msg.sender;\n        offer.ID = offNum;\n        offNum += 1;\n        offer.isDefined = true;\n        offer.offStage = Stage.Pending;\n        offers[offer.ID] = offer;\n        requests[offer.requestID].offerIDs.push(offer.ID);\n        emit FunctionStatus(int(Status.Successful));\n        emit OfferAdded(offer.ID, offer.requestID, offer.offerMaker);\n        return (int(Status.Successful), offer.ID);\n    }\n\n    // By sending the proposed price, others can complete and open their offer to buy flowers.\n    // (only the initial offer maker can access this function).\n    function submitOfferExtra(uint offerID, uint price) public returns (int status, uint offID) {\n        Offer memory offer = offers[offerID];\n\n        if(!offer.isDefined) {\n            emit FunctionStatus(int(Status.UndefinedID));\n            return (int(Status.UndefinedID), 0);\n        }\n        if(offer.offStage != Stage.Pending) {\n            emit FunctionStatus(int(Status.NotPending));\n            return (int(Status.NotPending), 0);\n        }\n        if(offer.offerMaker != msg.sender) {\n            emit FunctionStatus(int(Status.AccessDenied));\n            return (int(Status.AccessDenied), 0);\n        }\n        if(requests[offer.requestID].reqStage != Stage.Open) {\n            emit FunctionStatus(int(Status.RequestNotOpen));\n            return (int(Status.RequestNotOpen), 0);\n        }\n        require(offer.isDefined && offer.offStage == Stage.Pending\n            && offer.offerMaker == msg.sender\n            && requests[offer.requestID].reqStage == Stage.Open);\n\n        offer.price = price;\n        offer.offStage = Stage.Open;\n        offers[offerID] = offer;\n        emit FunctionStatus(int(Status.Successful));\n        emit OfferExtraAdded(offerID, price);\n        return (int(Status.Successful), offerID);\n    }\n\n    // Check if a request with the specified request identifier is defined.\n    function isRequestDefined(uint requestIdentifier) public view returns (int status, bool) {\n        return (int(Status.Successful), requests[requestIdentifier].isDefined);\n    }\n\n    // Check if a defined request with the specified request identifier is decided.\n    function isRequestDecided(uint requestIdentifier) public view returns (int status, bool) {\n        if(!requests[requestIdentifier].isDefined) {\n            return (int(Status.UndefinedID), false);\n        }\n        require(requests[requestIdentifier].isDefined);\n\n        return (int(Status.Successful), requests[requestIdentifier].isDecided);\n    }\n\n    // Get the identifier of accepted offer for a decided request.\n    function getRequestDecision(uint requestIdentifier) public view returns (int status, uint[] acceptedOfferIDs) {\n        if(!requests[requestIdentifier].isDefined) {\n            return (int(Status.UndefinedID), new uint[](0));\n        }\n        if(!requests[requestIdentifier].isDecided) {\n            return (int(Status.ReqNotDecided), new uint[](0));\n        }\n        require(requests[requestIdentifier].isDefined && requests[requestIdentifier].isDecided);\n\n        if(requests[requestIdentifier].acceptedOfferID != 0) {\n            uint[] memory accoffIDs1 = new uint[](1);\n            accoffIDs1[0] = requests[requestIdentifier].acceptedOfferID;\n            return (int(Status.Successful), accoffIDs1);\n        }\n        else {\n            uint[] memory accoffIDs2 = new uint[](0);\n            return (int(Status.Successful), accoffIDs2);\n        }\n    }\n\n    // By specifiying the deadline of the request, owner and managers\n    // can add a new request. It will have a unique identifier and others will be able to make offers for it\n    // (only owner or managers can access this function).\n    function submitRequest(uint deadline) public returns (int status, uint requestID) {\n        if(!(msg.sender == owner || isManager(msg.sender))) {\n            emit FunctionStatus(int(Status.AccessDenied));\n            return (int(Status.AccessDenied), 0);\n        }\n        require(msg.sender == owner || isManager(msg.sender));\n\n        Request memory request;\n        request.deadline = deadline;\n        request.ID = reqNum;\n        reqNum += 1;\n        request.isDefined = true;\n        request.reqStage = Stage.Pending;\n        request.isDecided = false;\n        requests[request.ID] = request;\n        emit FunctionStatus(int(Status.Successful));\n        emit RequestAdded(request.ID, request.deadline);\n        return (int(Status.Successful), request.ID);\n    }\n\n    // By specifiying the type of the flowers, quantity of them, owner and managers\n    // can complete a request (only owner or managers can access this function).\n    function submitRequestExtra(uint requestID, uint quantity, FlowerType flowerType) public returns (int status, uint reqID) {\n        if(!(msg.sender == owner || isManager(msg.sender))) {\n            emit FunctionStatus(int(Status.AccessDenied));\n            return (int(Status.AccessDenied), 0);\n        }\n        if(!requests[requestID].isDefined) {\n            emit FunctionStatus(int(Status.UndefinedID));\n            return (int(Status.UndefinedID), 0);\n        }\n        if(requests[requestID].reqStage != Stage.Pending) {\n            emit FunctionStatus(int(Status.NotPending));\n            return (int(Status.NotPending), 0);\n        }\n        require(msg.sender == owner || isManager(msg.sender));\n        require(requests[requestID].isDefined && requests[requestID].reqStage == Stage.Pending);\n\n        requests[requestID].quantity = quantity;\n        requests[requestID].flowerType = flowerType;\n        openRequest(requestID);\n        emit FunctionStatus(int(Status.Successful));\n        emit RequestExtraAdded(requestID, quantity, flowerType);\n        return (int(Status.Successful), requestID);\n    }\n\n    // Open a request.\n    function openRequest(uint requestIdentifier) private {\n        requests[requestIdentifier].reqStage = Stage.Open;\n        openRequestIDs.push(requests[requestIdentifier].ID);\n    }\n\n    // Manually close a request, so others won't be able to make offers for it or even see it in the list of requests.\n    // In this implementation, this is completely apart from request's deadline. This can be modified based on the\n    // specifications of the market we have (only owner or managers can access this function).\n    function closeRequest(uint requestIdentifier) public returns (int status) {\n        if(!(msg.sender == owner || isManager(msg.sender))) {\n            emit FunctionStatus(int(Status.AccessDenied));\n            return int(Status.AccessDenied);\n        }\n        require(msg.sender == owner || isManager(msg.sender));\n\n        requests[requestIdentifier].reqStage = Stage.Closed;\n        requests[requestIdentifier].closingBlock = block.number;\n        closedRequestIDs.push(requestIdentifier);\n        for (uint j = 0; j < openRequestIDs.length; j++) {\n            if (openRequestIDs[j] == requestIdentifier) {\n                for (uint i = j; i < openRequestIDs.length - 1; i++){\n                    openRequestIDs[i] = openRequestIDs[i+1];\n                }\n                delete openRequestIDs[openRequestIDs.length-1];\n                openRequestIDs.length--;\n                emit FunctionStatus(int(Status.Successful));\n                return int(Status.Successful);\n            }\n        }\n    }\n\n    // Choose which offer to accept, based on the proposed prices. The decision process can differ for other markets,\n    // and it can be very complicated. Even in some cases, the decision must be made in the backend.\n    // (only owner or managers can access this function).\n    function decideRequest(uint requestIdentifier, uint[] /*acceptedOfferIDs*/) external returns (int status) {\n        if(!(msg.sender == owner || isManager(msg.sender))) {\n            emit FunctionStatus(int(Status.AccessDenied));\n            return int(Status.AccessDenied);\n        }\n        require(msg.sender == owner || isManager(msg.sender));\n\n        closeRequest(requestIdentifier);\n        uint maxOffer = 0;\n        uint acceptedOfferID = 0;\n        for (uint i = 0; i < requests[requestIdentifier].offerIDs.length; i++) {\n            Offer memory offer = offers[requests[requestIdentifier].offerIDs[i]];\n            if (offer.offStage == Stage.Open && maxOffer < offer.price) {\n                maxOffer = offer.price;\n                acceptedOfferID = requests[requestIdentifier].offerIDs[i];\n            }\n        }\n        requests[requestIdentifier].acceptedOfferID = acceptedOfferID;\n        requests[requestIdentifier].isDecided = true;\n        emit FunctionStatus(int(Status.Successful));\n        return int(Status.Successful);\n    }\n\n    function deleteRequest(uint requestIdentifier) public returns (int status) {\n        if(!(msg.sender == owner || isManager(msg.sender))) {\n            emit FunctionStatus(int(Status.AccessDenied));\n            return int(Status.AccessDenied);\n        }\n        if(requests[requestIdentifier].reqStage != Stage.Closed) {\n            emit FunctionStatus(int(Status.reqNotClosed));\n            return int(Status.reqNotClosed);\n        }\n        if(requests[requestIdentifier].closingBlock + waitBeforeDeleteBlocks > block.number) {\n            emit FunctionStatus(int(Status.NotTimeForDeletion));\n            return int(Status.NotTimeForDeletion);\n        }\n        require(msg.sender == owner || isManager(msg.sender));\n        require(requests[requestIdentifier].reqStage == Stage.Closed\n            && requests[requestIdentifier].closingBlock + waitBeforeDeleteBlocks <= block.number);\n\n        for (uint k = 0; k < requests[requestIdentifier].offerIDs.length; k++) {\n            delete offers[requests[requestIdentifier].offerIDs[k]];\n        }\n\n        delete requests[requestIdentifier];\n\n        for (uint j = 0; j < closedRequestIDs.length; j++) {\n            if (closedRequestIDs[j] == requestIdentifier) {\n                for (uint i = j; i < closedRequestIDs.length - 1; i++){\n                    closedRequestIDs[i] = closedRequestIDs[i+1];\n                }\n                delete closedRequestIDs[closedRequestIDs.length-1];\n                closedRequestIDs.length--;\n                emit FunctionStatus(int(Status.Successful));\n                return int(Status.Successful);\n            }\n        }\n    }\n\n    // ERC165\n    function supportsInterface(bytes4 interfaceID) public view returns (bool) {\n        return\n          MultiManagersBaseContract.supportsInterface(interfaceID) ||\n          interfaceID == (this.getMarketInformation.selector\n                         ^ this.getOpenRequestIdentifiers.selector\n                         ^ this.getClosedRequestIdentifiers.selector\n                         ^ this.getRequest.selector\n                         ^ this.getRequestOfferIDs.selector\n                         ^ this.isOfferDefined.selector\n                         ^ this.getOffer.selector\n                         ^ this.submitOffer.selector\n                         ^ this.isRequestDefined.selector\n                         ^ this.isRequestDecided.selector\n                         ^ this.getRequestDecision.selector\n                         ^ this.submitRequest.selector\n                         ^ this.closeRequest.selector\n                         ^ this.decideRequest.selector\n                         ^ this.deleteRequest.selector); // MarketPlace\n    }\n\n}\n",
  "sourcePath": "/Users/Rotta/Desktop/truffletest/contracts/FlowerMarketPlace.sol",
  "compiler": {
    "name": "solc",
    "version": "0.4.24+commit.e67f0147.Emscripten.clang"
  },
  "schemaVersion": "2.0.1",
  "updatedAt": "2018-09-30T11:05:59.825Z"
}